{
  "_format": "hh-sol-artifact-1",
  "contractName": "OrchardQuality",
  "sourceName": "contracts/OrchardQuality.sol",
  "abi": [
    {
      "inputs": [],
      "stateMutability": "nonpayable",
      "type": "constructor"
    },
    {
      "anonymous": false,
      "inputs": [
        {
          "indexed": true,
          "internalType": "uint256",
          "name": "id",
          "type": "uint256"
        },
        {
          "indexed": false,
          "internalType": "string",
          "name": "farmId",
          "type": "string"
        },
        {
          "indexed": false,
          "internalType": "uint256",
          "name": "timestamp",
          "type": "uint256"
        }
      ],
      "name": "QualityRecordAdded",
      "type": "event"
    },
    {
      "inputs": [
        {
          "internalType": "string",
          "name": "_farmId",
          "type": "string"
        },
        {
          "internalType": "uint256",
          "name": "_pest",
          "type": "uint256"
        },
        {
          "internalType": "uint256",
          "name": "_yieldValue",
          "type": "uint256"
        },
        {
          "internalType": "uint256",
          "name": "_ndvi",
          "type": "uint256"
        },
        {
          "internalType": "uint256",
          "name": "_overallScore",
          "type": "uint256"
        }
      ],
      "name": "addQualityRecord",
      "outputs": [],
      "stateMutability": "nonpayable",
      "type": "function"
    },
    {
      "inputs": [],
      "name": "admin",
      "outputs": [
        {
          "internalType": "address",
          "name": "",
          "type": "address"
        }
      ],
      "stateMutability": "view",
      "type": "function"
    },
    {
      "inputs": [
        {
          "internalType": "string",
          "name": "_farmId",
          "type": "string"
        }
      ],
      "name": "getAllRecordsForFarm",
      "outputs": [
        {
          "components": [
            {
              "internalType": "uint256",
              "name": "id",
              "type": "uint256"
            },
            {
              "internalType": "string",
              "name": "farmId",
              "type": "string"
            },
            {
              "internalType": "uint256",
              "name": "pest",
              "type": "uint256"
            },
            {
              "internalType": "uint256",
              "name": "yieldValue",
              "type": "uint256"
            },
            {
              "internalType": "uint256",
              "name": "ndvi",
              "type": "uint256"
            },
            {
              "internalType": "uint256",
              "name": "overallScore",
              "type": "uint256"
            },
            {
              "internalType": "uint256",
              "name": "timestamp",
              "type": "uint256"
            }
          ],
          "internalType": "struct OrchardQuality.QualityRecord[]",
          "name": "",
          "type": "tuple[]"
        }
      ],
      "stateMutability": "view",
      "type": "function"
    },
    {
      "inputs": [
        {
          "internalType": "string",
          "name": "_farmId",
          "type": "string"
        }
      ],
      "name": "getLatestRecordForFarm",
      "outputs": [
        {
          "components": [
            {
              "internalType": "uint256",
              "name": "id",
              "type": "uint256"
            },
            {
              "internalType": "string",
              "name": "farmId",
              "type": "string"
            },
            {
              "internalType": "uint256",
              "name": "pest",
              "type": "uint256"
            },
            {
              "internalType": "uint256",
              "name": "yieldValue",
              "type": "uint256"
            },
            {
              "internalType": "uint256",
              "name": "ndvi",
              "type": "uint256"
            },
            {
              "internalType": "uint256",
              "name": "overallScore",
              "type": "uint256"
            },
            {
              "internalType": "uint256",
              "name": "timestamp",
              "type": "uint256"
            }
          ],
          "internalType": "struct OrchardQuality.QualityRecord",
          "name": "",
          "type": "tuple"
        }
      ],
      "stateMutability": "view",
      "type": "function"
    },
    {
      "inputs": [],
      "name": "recordCount",
      "outputs": [
        {
          "internalType": "uint256",
          "name": "",
          "type": "uint256"
        }
      ],
      "stateMutability": "view",
      "type": "function"
    },
    {
      "inputs": [
        {
          "internalType": "uint256",
          "name": "",
          "type": "uint256"
        }
      ],
      "name": "records",
      "outputs": [
        {
          "internalType": "uint256",
          "name": "id",
          "type": "uint256"
        },
        {
          "internalType": "string",
          "name": "farmId",
          "type": "string"
        },
        {
          "internalType": "uint256",
          "name": "pest",
          "type": "uint256"
        },
        {
          "internalType": "uint256",
          "name": "yieldValue",
          "type": "uint256"
        },
        {
          "internalType": "uint256",
          "name": "ndvi",
          "type": "uint256"
        },
        {
          "internalType": "uint256",
          "name": "overallScore",
          "type": "uint256"
        },
        {
          "internalType": "uint256",
          "name": "timestamp",
          "type": "uint256"
        }
      ],
      "stateMutability": "view",
      "type": "function"
    }
  ],
  "bytecode": "0x608060405234801561001057600080fd5b50336000806101000a81548173ffffffffffffffffffffffffffffffffffffffff021916908373ffffffffffffffffffffffffffffffffffffffff16021790555061151d806100606000396000f3fe608060405234801561001057600080fd5b50600436106100625760003560e01c80631389124a14610067578063344610671461009757806335e22609146100cd578063900407bc146100fd578063921a2a1e1461011b578063f851a44014610137575b600080fd5b610081600480360381019061007c91906109cb565b610155565b60405161008e9190610c0a565b60405180910390f35b6100b160048036038101906100ac9190610c58565b610323565b6040516100c49796959493929190610cde565b60405180910390f35b6100e760048036038101906100e291906109cb565b6103ed565b6040516100f49190610df0565b60405180910390f35b61010561054f565b6040516101129190610e12565b60405180910390f35b61013560048036038101906101309190610e2d565b610555565b005b61013f610810565b60405161014c9190610f05565b60405180910390f35b606060006004836040516101699190610f5c565b908152602001604051809103902090506000818054905067ffffffffffffffff811115610199576101986108a0565b5b6040519080825280602002602001820160405280156101d257816020015b6101bf610834565b8152602001906001900390816101b75790505b50905060005b828054905081101561031857600260008483815481106101fb576101fa610f73565b5b906000526020600020015481526020019081526020016000206040518060e00160405290816000820154815260200160018201805461023990610fd1565b80601f016020809104026020016040519081016040528092919081815260200182805461026590610fd1565b80156102b25780601f10610287576101008083540402835291602001916102b2565b820191906000526020600020905b81548152906001019060200180831161029557829003601f168201915b5050505050815260200160028201548152602001600382015481526020016004820154815260200160058201548152602001600682015481525050828281518110610300576102ff610f73565b5b602002602001018190525080806001019150506101d8565b508092505050919050565b600260205280600052604060002060009150905080600001549080600101805461034c90610fd1565b80601f016020809104026020016040519081016040528092919081815260200182805461037890610fd1565b80156103c55780601f1061039a576101008083540402835291602001916103c5565b820191906000526020600020905b8154815290600101906020018083116103a857829003601f168201915b5050505050908060020154908060030154908060040154908060050154908060060154905087565b6103f5610834565b60006005836040516104079190610f5c565b90815260200160405180910390205490506000810361045b576040517f08c379a00000000000000000000000000000000000000000000000000000000081526004016104529061104e565b60405180910390fd5b600260008281526020019081526020016000206040518060e00160405290816000820154815260200160018201805461049390610fd1565b80601f01602080910402602001604051908101604052809291908181526020018280546104bf90610fd1565b801561050c5780601f106104e15761010080835404028352916020019161050c565b820191906000526020600020905b8154815290600101906020018083116104ef57829003601f168201915b5050505050815260200160028201548152602001600382015481526020016004820154815260200160058201548152602001600682015481525050915050919050565b60015481565b60008054906101000a900473ffffffffffffffffffffffffffffffffffffffff1673ffffffffffffffffffffffffffffffffffffffff163373ffffffffffffffffffffffffffffffffffffffff16146105e3576040517f08c379a00000000000000000000000000000000000000000000000000000000081526004016105da906110ba565b60405180910390fd5b600085858585856040516020016105fe9594939291906110fb565b6040516020818303038152906040528051906020012090506003600082815260200190815260200160002060009054906101000a900460ff1615610677576040517f08c379a000000000000000000000000000000000000000000000000000000000815260040161066e906111a2565b60405180910390fd5b6001600081548092919061068a906111f1565b919050555060006040518060e001604052806001548152602001888152602001878152602001868152602001858152602001848152602001428152509050806002600060015481526020019081526020016000206000820151816000015560208201518160010190816106fd91906113e5565b5060408201518160020155606082015181600301556080820151816004015560a0820151816005015560c0820151816006015590505060016003600084815260200190815260200160002060006101000a81548160ff02191690831515021790555060048760405161076f9190610f5c565b908152602001604051809103902060015490806001815401808255809150506001900390600052602060002001600090919091909150556001546005886040516107b99190610f5c565b9081526020016040518091039020819055506001547fa4a9b2f0845fe2548108c877e7b51d72d68679b1254083c596ffbd4b78cb985788426040516107ff9291906114b7565b60405180910390a250505050505050565b60008054906101000a900473ffffffffffffffffffffffffffffffffffffffff1681565b6040518060e00160405280600081526020016060815260200160008152602001600081526020016000815260200160008152602001600081525090565b6000604051905090565b600080fd5b600080fd5b600080fd5b600080fd5b6000601f19601f8301169050919050565b7f4e487b7100000000000000000000000000000000000000000000000000000000600052604160045260246000fd5b6108d88261088f565b810181811067ffffffffffffffff821117156108f7576108f66108a0565b5b80604052505050565b600061090a610871565b905061091682826108cf565b919050565b600067ffffffffffffffff821115610936576109356108a0565b5b61093f8261088f565b9050602081019050919050565b82818337600083830152505050565b600061096e6109698461091b565b610900565b90508281526020810184848401111561098a5761098961088a565b5b61099584828561094c565b509392505050565b600082601f8301126109b2576109b1610885565b5b81356109c284826020860161095b565b91505092915050565b6000602082840312156109e1576109e061087b565b5b600082013567ffffffffffffffff8111156109ff576109fe610880565b5b610a0b8482850161099d565b91505092915050565b600081519050919050565b600082825260208201905092915050565b6000819050602082019050919050565b6000819050919050565b610a5381610a40565b82525050565b600081519050919050565b600082825260208201905092915050565b60005b83811015610a93578082015181840152602081019050610a78565b60008484015250505050565b6000610aaa82610a59565b610ab48185610a64565b9350610ac4818560208601610a75565b610acd8161088f565b840191505092915050565b600060e083016000830151610af06000860182610a4a565b5060208301518482036020860152610b088282610a9f565b9150506040830151610b1d6040860182610a4a565b506060830151610b306060860182610a4a565b506080830151610b436080860182610a4a565b5060a0830151610b5660a0860182610a4a565b5060c0830151610b6960c0860182610a4a565b508091505092915050565b6000610b808383610ad8565b905092915050565b6000602082019050919050565b6000610ba082610a14565b610baa8185610a1f565b935083602082028501610bbc85610a30565b8060005b85811015610bf85784840389528151610bd98582610b74565b9450610be483610b88565b925060208a01995050600181019050610bc0565b50829750879550505050505092915050565b60006020820190508181036000830152610c248184610b95565b905092915050565b610c3581610a40565b8114610c4057600080fd5b50565b600081359050610c5281610c2c565b92915050565b600060208284031215610c6e57610c6d61087b565b5b6000610c7c84828501610c43565b91505092915050565b610c8e81610a40565b82525050565b600082825260208201905092915050565b6000610cb082610a59565b610cba8185610c94565b9350610cca818560208601610a75565b610cd38161088f565b840191505092915050565b600060e082019050610cf3600083018a610c85565b8181036020830152610d058189610ca5565b9050610d146040830188610c85565b610d216060830187610c85565b610d2e6080830186610c85565b610d3b60a0830185610c85565b610d4860c0830184610c85565b98975050505050505050565b600060e083016000830151610d6c6000860182610a4a565b5060208301518482036020860152610d848282610a9f565b9150506040830151610d996040860182610a4a565b506060830151610dac6060860182610a4a565b506080830151610dbf6080860182610a4a565b5060a0830151610dd260a0860182610a4a565b5060c0830151610de560c0860182610a4a565b508091505092915050565b60006020820190508181036000830152610e0a8184610d54565b905092915050565b6000602082019050610e276000830184610c85565b92915050565b600080600080600060a08688031215610e4957610e4861087b565b5b600086013567ffffffffffffffff811115610e6757610e66610880565b5b610e738882890161099d565b9550506020610e8488828901610c43565b9450506040610e9588828901610c43565b9350506060610ea688828901610c43565b9250506080610eb788828901610c43565b9150509295509295909350565b600073ffffffffffffffffffffffffffffffffffffffff82169050919050565b6000610eef82610ec4565b9050919050565b610eff81610ee4565b82525050565b6000602082019050610f1a6000830184610ef6565b92915050565b600081905092915050565b6000610f3682610a59565b610f408185610f20565b9350610f50818560208601610a75565b80840191505092915050565b6000610f688284610f2b565b915081905092915050565b7f4e487b7100000000000000000000000000000000000000000000000000000000600052603260045260246000fd5b7f4e487b7100000000000000000000000000000000000000000000000000000000600052602260045260246000fd5b60006002820490506001821680610fe957607f821691505b602082108103610ffc57610ffb610fa2565b5b50919050565b7f4e6f207265636f72647320666f756e6420666f722074686973206661726d0000600082015250565b6000611038601e83610c94565b915061104382611002565b602082019050919050565b600060208201905081810360008301526110678161102b565b9050919050565b7f4e6f7420617574686f72697a65643a2061646d696e206f6e6c79000000000000600082015250565b60006110a4601a83610c94565b91506110af8261106e565b602082019050919050565b600060208201905081810360008301526110d381611097565b9050919050565b6000819050919050565b6110f56110f082610a40565b6110da565b82525050565b60006111078288610f2b565b915061111382876110e4565b60208201915061112382866110e4565b60208201915061113382856110e4565b60208201915061114382846110e4565b6020820191508190509695505050505050565b7f54686973207265636f726420616c726561647920657869737473000000000000600082015250565b600061118c601a83610c94565b915061119782611156565b602082019050919050565b600060208201905081810360008301526111bb8161117f565b9050919050565b7f4e487b7100000000000000000000000000000000000000000000000000000000600052601160045260246000fd5b60006111fc82610a40565b91507fffffffffffffffffffffffffffffffffffffffffffffffffffffffffffffffff820361122e5761122d6111c2565b5b600182019050919050565b60008190508160005260206000209050919050565b60006020601f8301049050919050565b600082821b905092915050565b60006008830261129b7fffffffffffffffffffffffffffffffffffffffffffffffffffffffffffffffff8261125e565b6112a5868361125e565b95508019841693508086168417925050509392505050565b6000819050919050565b60006112e26112dd6112d884610a40565b6112bd565b610a40565b9050919050565b6000819050919050565b6112fc836112c7565b611310611308826112e9565b84845461126b565b825550505050565b600090565b611325611318565b6113308184846112f3565b505050565b5b818110156113545761134960008261131d565b600181019050611336565b5050565b601f8211156113995761136a81611239565b6113738461124e565b81016020851015611382578190505b61139661138e8561124e565b830182611335565b50505b505050565b600082821c905092915050565b60006113bc6000198460080261139e565b1980831691505092915050565b60006113d583836113ab565b9150826002028217905092915050565b6113ee82610a59565b67ffffffffffffffff811115611407576114066108a0565b5b6114118254610fd1565b61141c828285611358565b600060209050601f83116001811461144f576000841561143d578287015190505b61144785826113c9565b8655506114af565b601f19841661145d86611239565b60005b8281101561148557848901518255600182019150602085019450602081019050611460565b868310156114a2578489015161149e601f8916826113ab565b8355505b6001600288020188555050505b505050505050565b600060408201905081810360008301526114d18185610ca5565b90506114e06020830184610c85565b939250505056fea2646970667358221220533304e197ded9651314a3a0b9a919ec453a05fee59912c9c4cfa63653dfa11964736f6c63430008180033",
  "linkReferences": {},
  "deployedLinkReferences": {}
}